{
  "_format": "hh-sol-artifact-1",
  "contractName": "EcoTrackerNFT",
  "sourceName": "contracts/EcoTrackerNFT.sol",
  "abi": [
    {
      "inputs": [
        {
          "internalType": "string",
          "name": "baseURI",
          "type": "string"
        }
      ],
      "stateMutability": "nonpayable",
      "type": "constructor"
    },
    {
      "inputs": [
        {
          "internalType": "address",
          "name": "sender",
          "type": "address"
        },
        {
          "internalType": "uint256",
          "name": "tokenId",
          "type": "uint256"
        },
        {
          "internalType": "address",
          "name": "owner",
          "type": "address"
        }
      ],
      "name": "ERC721IncorrectOwner",
      "type": "error"
    },
    {
      "inputs": [
        {
          "internalType": "address",
          "name": "operator",
          "type": "address"
        },
        {
          "internalType": "uint256",
          "name": "tokenId",
          "type": "uint256"
        }
      ],
      "name": "ERC721InsufficientApproval",
      "type": "error"
    },
    {
      "inputs": [
        {
          "internalType": "address",
          "name": "approver",
          "type": "address"
        }
      ],
      "name": "ERC721InvalidApprover",
      "type": "error"
    },
    {
      "inputs": [
        {
          "internalType": "address",
          "name": "operator",
          "type": "address"
        }
      ],
      "name": "ERC721InvalidOperator",
      "type": "error"
    },
    {
      "inputs": [
        {
          "internalType": "address",
          "name": "owner",
          "type": "address"
        }
      ],
      "name": "ERC721InvalidOwner",
      "type": "error"
    },
    {
      "inputs": [
        {
          "internalType": "address",
          "name": "receiver",
          "type": "address"
        }
      ],
      "name": "ERC721InvalidReceiver",
      "type": "error"
    },
    {
      "inputs": [
        {
          "internalType": "address",
          "name": "sender",
          "type": "address"
        }
      ],
      "name": "ERC721InvalidSender",
      "type": "error"
    },
    {
      "inputs": [
        {
          "internalType": "uint256",
          "name": "tokenId",
          "type": "uint256"
        }
      ],
      "name": "ERC721NonexistentToken",
      "type": "error"
    },
    {
      "inputs": [
        {
          "internalType": "address",
          "name": "owner",
          "type": "address"
        }
      ],
      "name": "OwnableInvalidOwner",
      "type": "error"
    },
    {
      "inputs": [
        {
          "internalType": "address",
          "name": "account",
          "type": "address"
        }
      ],
      "name": "OwnableUnauthorizedAccount",
      "type": "error"
    },
    {
      "anonymous": false,
      "inputs": [
        {
          "indexed": true,
          "internalType": "address",
          "name": "owner",
          "type": "address"
        },
        {
          "indexed": true,
          "internalType": "address",
          "name": "approved",
          "type": "address"
        },
        {
          "indexed": true,
          "internalType": "uint256",
          "name": "tokenId",
          "type": "uint256"
        }
      ],
      "name": "Approval",
      "type": "event"
    },
    {
      "anonymous": false,
      "inputs": [
        {
          "indexed": true,
          "internalType": "address",
          "name": "owner",
          "type": "address"
        },
        {
          "indexed": true,
          "internalType": "address",
          "name": "operator",
          "type": "address"
        },
        {
          "indexed": false,
          "internalType": "bool",
          "name": "approved",
          "type": "bool"
        }
      ],
      "name": "ApprovalForAll",
      "type": "event"
    },
    {
      "anonymous": false,
      "inputs": [
        {
          "indexed": true,
          "internalType": "address",
          "name": "previousOwner",
          "type": "address"
        },
        {
          "indexed": true,
          "internalType": "address",
          "name": "newOwner",
          "type": "address"
        }
      ],
      "name": "OwnershipTransferred",
      "type": "event"
    },
    {
      "anonymous": false,
      "inputs": [
        {
          "indexed": true,
          "internalType": "address",
          "name": "from",
          "type": "address"
        },
        {
          "indexed": true,
          "internalType": "address",
          "name": "to",
          "type": "address"
        },
        {
          "indexed": true,
          "internalType": "uint256",
          "name": "tokenId",
          "type": "uint256"
        }
      ],
      "name": "Transfer",
      "type": "event"
    },
    {
      "inputs": [
        {
          "internalType": "address",
          "name": "to",
          "type": "address"
        },
        {
          "internalType": "uint256",
          "name": "tokenId",
          "type": "uint256"
        }
      ],
      "name": "approve",
      "outputs": [],
      "stateMutability": "nonpayable",
      "type": "function"
    },
    {
      "inputs": [
        {
          "internalType": "address",
          "name": "owner",
          "type": "address"
        }
      ],
      "name": "balanceOf",
      "outputs": [
        {
          "internalType": "uint256",
          "name": "",
          "type": "uint256"
        }
      ],
      "stateMutability": "view",
      "type": "function"
    },
    {
      "inputs": [
        {
          "internalType": "uint256",
          "name": "tokenId",
          "type": "uint256"
        }
      ],
      "name": "getApproved",
      "outputs": [
        {
          "internalType": "address",
          "name": "",
          "type": "address"
        }
      ],
      "stateMutability": "view",
      "type": "function"
    },
    {
      "inputs": [
        {
          "internalType": "address",
          "name": "owner",
          "type": "address"
        },
        {
          "internalType": "address",
          "name": "operator",
          "type": "address"
        }
      ],
      "name": "isApprovedForAll",
      "outputs": [
        {
          "internalType": "bool",
          "name": "",
          "type": "bool"
        }
      ],
      "stateMutability": "view",
      "type": "function"
    },
    {
      "inputs": [],
      "name": "name",
      "outputs": [
        {
          "internalType": "string",
          "name": "",
          "type": "string"
        }
      ],
      "stateMutability": "view",
      "type": "function"
    },
    {
      "inputs": [],
      "name": "owner",
      "outputs": [
        {
          "internalType": "address",
          "name": "",
          "type": "address"
        }
      ],
      "stateMutability": "view",
      "type": "function"
    },
    {
      "inputs": [
        {
          "internalType": "uint256",
          "name": "tokenId",
          "type": "uint256"
        }
      ],
      "name": "ownerOf",
      "outputs": [
        {
          "internalType": "address",
          "name": "",
          "type": "address"
        }
      ],
      "stateMutability": "view",
      "type": "function"
    },
    {
      "inputs": [],
      "name": "renounceOwnership",
      "outputs": [],
      "stateMutability": "nonpayable",
      "type": "function"
    },
    {
      "inputs": [
        {
          "internalType": "address",
          "name": "to",
          "type": "address"
        }
      ],
      "name": "safeMint",
      "outputs": [],
      "stateMutability": "nonpayable",
      "type": "function"
    },
    {
      "inputs": [
        {
          "internalType": "address",
          "name": "from",
          "type": "address"
        },
        {
          "internalType": "address",
          "name": "to",
          "type": "address"
        },
        {
          "internalType": "uint256",
          "name": "tokenId",
          "type": "uint256"
        }
      ],
      "name": "safeTransferFrom",
      "outputs": [],
      "stateMutability": "nonpayable",
      "type": "function"
    },
    {
      "inputs": [
        {
          "internalType": "address",
          "name": "from",
          "type": "address"
        },
        {
          "internalType": "address",
          "name": "to",
          "type": "address"
        },
        {
          "internalType": "uint256",
          "name": "tokenId",
          "type": "uint256"
        },
        {
          "internalType": "bytes",
          "name": "data",
          "type": "bytes"
        }
      ],
      "name": "safeTransferFrom",
      "outputs": [],
      "stateMutability": "nonpayable",
      "type": "function"
    },
    {
      "inputs": [
        {
          "internalType": "address",
          "name": "operator",
          "type": "address"
        },
        {
          "internalType": "bool",
          "name": "approved",
          "type": "bool"
        }
      ],
      "name": "setApprovalForAll",
      "outputs": [],
      "stateMutability": "nonpayable",
      "type": "function"
    },
    {
      "inputs": [
        {
          "internalType": "bytes4",
          "name": "interfaceId",
          "type": "bytes4"
        }
      ],
      "name": "supportsInterface",
      "outputs": [
        {
          "internalType": "bool",
          "name": "",
          "type": "bool"
        }
      ],
      "stateMutability": "view",
      "type": "function"
    },
    {
      "inputs": [],
      "name": "symbol",
      "outputs": [
        {
          "internalType": "string",
          "name": "",
          "type": "string"
        }
      ],
      "stateMutability": "view",
      "type": "function"
    },
    {
      "inputs": [
        {
          "internalType": "uint256",
          "name": "tokenId",
          "type": "uint256"
        }
      ],
      "name": "tokenURI",
      "outputs": [
        {
          "internalType": "string",
          "name": "",
          "type": "string"
        }
      ],
      "stateMutability": "view",
      "type": "function"
    },
    {
      "inputs": [
        {
          "internalType": "address",
          "name": "from",
          "type": "address"
        },
        {
          "internalType": "address",
          "name": "to",
          "type": "address"
        },
        {
          "internalType": "uint256",
          "name": "tokenId",
          "type": "uint256"
        }
      ],
      "name": "transferFrom",
      "outputs": [],
      "stateMutability": "nonpayable",
      "type": "function"
    },
    {
      "inputs": [
        {
          "internalType": "address",
          "name": "newOwner",
          "type": "address"
        }
      ],
      "name": "transferOwnership",
      "outputs": [],
      "stateMutability": "nonpayable",
      "type": "function"
    },
    {
      "inputs": [],
      "name": "withdraw",
      "outputs": [],
      "stateMutability": "nonpayable",
      "type": "function"
    }
  ],
  "bytecode": "0x60806040523480156200001157600080fd5b50604051620029ae380380620029ae8339818101604052810190620000379190620003c3565b336040518060400160405280600d81526020017f45636f547261636b65724e4654000000000000000000000000000000000000008152506040518060400160405280600381526020017f45434f00000000000000000000000000000000000000000000000000000000008152508160009081620000b591906200065f565b508060019081620000c791906200065f565b505050600073ffffffffffffffffffffffffffffffffffffffff168173ffffffffffffffffffffffffffffffffffffffff16036200013f5760006040517f1e4fbdf70000000000000000000000000000000000000000000000000000000081526004016200013691906200078b565b60405180910390fd5b62000150816200016a60201b60201c565b5080600890816200016291906200065f565b5050620007a8565b6000600660009054906101000a900473ffffffffffffffffffffffffffffffffffffffff16905081600660006101000a81548173ffffffffffffffffffffffffffffffffffffffff021916908373ffffffffffffffffffffffffffffffffffffffff1602179055508173ffffffffffffffffffffffffffffffffffffffff168173ffffffffffffffffffffffffffffffffffffffff167f8be0079c531659141344cd1fd0a4f28419497f9722a3daafe3b4186f6b6457e060405160405180910390a35050565b6000604051905090565b600080fd5b600080fd5b600080fd5b600080fd5b6000601f19601f8301169050919050565b7f4e487b7100000000000000000000000000000000000000000000000000000000600052604160045260246000fd5b62000299826200024e565b810181811067ffffffffffffffff82111715620002bb57620002ba6200025f565b5b80604052505050565b6000620002d062000230565b9050620002de82826200028e565b919050565b600067ffffffffffffffff8211156200030157620003006200025f565b5b6200030c826200024e565b9050602081019050919050565b60005b83811015620003395780820151818401526020810190506200031c565b60008484015250505050565b60006200035c6200035684620002e3565b620002c4565b9050828152602081018484840111156200037b576200037a62000249565b5b6200038884828562000319565b509392505050565b600082601f830112620003a857620003a762000244565b5b8151620003ba84826020860162000345565b91505092915050565b600060208284031215620003dc57620003db6200023a565b5b600082015167ffffffffffffffff811115620003fd57620003fc6200023f565b5b6200040b8482850162000390565b91505092915050565b600081519050919050565b7f4e487b7100000000000000000000000000000000000000000000000000000000600052602260045260246000fd5b600060028204905060018216806200046757607f821691505b6020821081036200047d576200047c6200041f565b5b50919050565b60008190508160005260206000209050919050565b60006020601f8301049050919050565b600082821b905092915050565b600060088302620004e77fffffffffffffffffffffffffffffffffffffffffffffffffffffffffffffffff82620004a8565b620004f38683620004a8565b95508019841693508086168417925050509392505050565b6000819050919050565b6000819050919050565b6000620005406200053a62000534846200050b565b62000515565b6200050b565b9050919050565b6000819050919050565b6200055c836200051f565b620005746200056b8262000547565b848454620004b5565b825550505050565b600090565b6200058b6200057c565b6200059881848462000551565b505050565b5b81811015620005c057620005b460008262000581565b6001810190506200059e565b5050565b601f8211156200060f57620005d98162000483565b620005e48462000498565b81016020851015620005f4578190505b6200060c620006038562000498565b8301826200059d565b50505b505050565b600082821c905092915050565b6000620006346000198460080262000614565b1980831691505092915050565b60006200064f838362000621565b9150826002028217905092915050565b6200066a8262000414565b67ffffffffffffffff8111156200068657620006856200025f565b5b6200069282546200044e565b6200069f828285620005c4565b600060209050601f831160018114620006d75760008415620006c2578287015190505b620006ce858262000641565b8655506200073e565b601f198416620006e78662000483565b60005b828110156200071157848901518255600182019150602085019450602081019050620006ea565b868310156200073157848901516200072d601f89168262000621565b8355505b6001600288020188555050505b505050505050565b600073ffffffffffffffffffffffffffffffffffffffff82169050919050565b6000620007738262000746565b9050919050565b620007858162000766565b82525050565b6000602082019050620007a260008301846200077a565b92915050565b6121f680620007b86000396000f3fe608060405234801561001057600080fd5b50600436106101165760003560e01c806370a08231116100a2578063a22cb46511610071578063a22cb465146102b9578063b88d4fde146102d5578063c87b56dd146102f1578063e985e9c514610321578063f2fde38b1461035157610116565b806370a0823114610243578063715018a6146102735780638da5cb5b1461027d57806395d89b411461029b57610116565b806323b872dd116100e957806323b872dd146101b55780633ccfd60b146101d157806340d097c3146101db57806342842e0e146101f75780636352211e1461021357610116565b806301ffc9a71461011b57806306fdde031461014b578063081812fc14610169578063095ea7b314610199575b600080fd5b610135600480360381019061013091906119c9565b61036d565b6040516101429190611a11565b60405180910390f35b61015361044f565b6040516101609190611abc565b60405180910390f35b610183600480360381019061017e9190611b14565b6104e1565b6040516101909190611b82565b60405180910390f35b6101b360048036038101906101ae9190611bc9565b6104fd565b005b6101cf60048036038101906101ca9190611c09565b610513565b005b6101d9610615565b005b6101f560048036038101906101f09190611c5c565b61066d565b005b610211600480360381019061020c9190611c09565b61069e565b005b61022d60048036038101906102289190611b14565b6106be565b60405161023a9190611b82565b60405180910390f35b61025d60048036038101906102589190611c5c565b6106d0565b60405161026a9190611c98565b60405180910390f35b61027b61078a565b005b61028561079e565b6040516102929190611b82565b60405180910390f35b6102a36107c8565b6040516102b09190611abc565b60405180910390f35b6102d360048036038101906102ce9190611cdf565b61085a565b005b6102ef60048036038101906102ea9190611e54565b610870565b005b61030b60048036038101906103069190611b14565b610895565b6040516103189190611abc565b60405180910390f35b61033b60048036038101906103369190611ed7565b6108fe565b6040516103489190611a11565b60405180910390f35b61036b60048036038101906103669190611c5c565b610992565b005b60007f80ac58cd000000000000000000000000000000000000000000000000000000007bffffffffffffffffffffffffffffffffffffffffffffffffffffffff1916827bffffffffffffffffffffffffffffffffffffffffffffffffffffffff1916148061043857507f5b5e139f000000000000000000000000000000000000000000000000000000007bffffffffffffffffffffffffffffffffffffffffffffffffffffffff1916827bffffffffffffffffffffffffffffffffffffffffffffffffffffffff1916145b80610448575061044782610a18565b5b9050919050565b60606000805461045e90611f46565b80601f016020809104026020016040519081016040528092919081815260200182805461048a90611f46565b80156104d75780601f106104ac576101008083540402835291602001916104d7565b820191906000526020600020905b8154815290600101906020018083116104ba57829003601f168201915b5050505050905090565b60006104ec82610a82565b506104f682610b0a565b9050919050565b61050f828261050a610b47565b610b4f565b5050565b600073ffffffffffffffffffffffffffffffffffffffff168273ffffffffffffffffffffffffffffffffffffffff16036105855760006040517f64a0ae9200000000000000000000000000000000000000000000000000000000815260040161057c9190611b82565b60405180910390fd5b60006105998383610594610b47565b610b61565b90508373ffffffffffffffffffffffffffffffffffffffff168173ffffffffffffffffffffffffffffffffffffffff161461060f578382826040517f64283d7b00000000000000000000000000000000000000000000000000000000815260040161060693929190611f77565b60405180910390fd5b50505050565b61061d610d7b565b61062561079e565b73ffffffffffffffffffffffffffffffffffffffff166108fc479081150290604051600060405180830381858888f1935050505015801561066a573d6000803e3d6000fd5b50565b610675610d7b565b60006007600081548092919061068a90611fdd565b91905055905061069a8282610e02565b5050565b6106b983838360405180602001604052806000815250610870565b505050565b60006106c982610a82565b9050919050565b60008073ffffffffffffffffffffffffffffffffffffffff168273ffffffffffffffffffffffffffffffffffffffff16036107435760006040517f89c62b6400000000000000000000000000000000000000000000000000000000815260040161073a9190611b82565b60405180910390fd5b600360008373ffffffffffffffffffffffffffffffffffffffff1673ffffffffffffffffffffffffffffffffffffffff168152602001908152602001600020549050919050565b610792610d7b565b61079c6000610e20565b565b6000600660009054906101000a900473ffffffffffffffffffffffffffffffffffffffff16905090565b6060600180546107d790611f46565b80601f016020809104026020016040519081016040528092919081815260200182805461080390611f46565b80156108505780601f1061082557610100808354040283529160200191610850565b820191906000526020600020905b81548152906001019060200180831161083357829003601f168201915b5050505050905090565b61086c610865610b47565b8383610ee6565b5050565b61087b848484610513565b61088f610886610b47565b85858585611055565b50505050565b60606108a082610a82565b5060006108ab611206565b905060008151116108cb57604051806020016040528060008152506108f6565b806108d584611298565b6040516020016108e6929190612061565b6040516020818303038152906040525b915050919050565b6000600560008473ffffffffffffffffffffffffffffffffffffffff1673ffffffffffffffffffffffffffffffffffffffff16815260200190815260200160002060008373ffffffffffffffffffffffffffffffffffffffff1673ffffffffffffffffffffffffffffffffffffffff16815260200190815260200160002060009054906101000a900460ff16905092915050565b61099a610d7b565b600073ffffffffffffffffffffffffffffffffffffffff168173ffffffffffffffffffffffffffffffffffffffff1603610a0c5760006040517f1e4fbdf7000000000000000000000000000000000000000000000000000000008152600401610a039190611b82565b60405180910390fd5b610a1581610e20565b50565b60007f01ffc9a7000000000000000000000000000000000000000000000000000000007bffffffffffffffffffffffffffffffffffffffffffffffffffffffff1916827bffffffffffffffffffffffffffffffffffffffffffffffffffffffff1916149050919050565b600080610a8e83611366565b9050600073ffffffffffffffffffffffffffffffffffffffff168173ffffffffffffffffffffffffffffffffffffffff1603610b0157826040517f7e273289000000000000000000000000000000000000000000000000000000008152600401610af89190611c98565b60405180910390fd5b80915050919050565b60006004600083815260200190815260200160002060009054906101000a900473ffffffffffffffffffffffffffffffffffffffff169050919050565b600033905090565b610b5c83838360016113a3565b505050565b600080610b6d84611366565b9050600073ffffffffffffffffffffffffffffffffffffffff168373ffffffffffffffffffffffffffffffffffffffff1614610baf57610bae818486611568565b5b600073ffffffffffffffffffffffffffffffffffffffff168173ffffffffffffffffffffffffffffffffffffffff1614610c4057610bf16000856000806113a3565b6001600360008373ffffffffffffffffffffffffffffffffffffffff1673ffffffffffffffffffffffffffffffffffffffff168152602001908152602001600020600082825403925050819055505b600073ffffffffffffffffffffffffffffffffffffffff168573ffffffffffffffffffffffffffffffffffffffff1614610cc3576001600360008773ffffffffffffffffffffffffffffffffffffffff1673ffffffffffffffffffffffffffffffffffffffff168152602001908152602001600020600082825401925050819055505b846002600086815260200190815260200160002060006101000a81548173ffffffffffffffffffffffffffffffffffffffff021916908373ffffffffffffffffffffffffffffffffffffffff160217905550838573ffffffffffffffffffffffffffffffffffffffff168273ffffffffffffffffffffffffffffffffffffffff167fddf252ad1be2c89b69c2b068fc378daa952ba7f163c4a11628f55a4df523b3ef60405160405180910390a4809150509392505050565b610d83610b47565b73ffffffffffffffffffffffffffffffffffffffff16610da161079e565b73ffffffffffffffffffffffffffffffffffffffff1614610e0057610dc4610b47565b6040517f118cdaa7000000000000000000000000000000000000000000000000000000008152600401610df79190611b82565b60405180910390fd5b565b610e1c82826040518060200160405280600081525061162c565b5050565b6000600660009054906101000a900473ffffffffffffffffffffffffffffffffffffffff16905081600660006101000a81548173ffffffffffffffffffffffffffffffffffffffff021916908373ffffffffffffffffffffffffffffffffffffffff1602179055508173ffffffffffffffffffffffffffffffffffffffff168173ffffffffffffffffffffffffffffffffffffffff167f8be0079c531659141344cd1fd0a4f28419497f9722a3daafe3b4186f6b6457e060405160405180910390a35050565b600073ffffffffffffffffffffffffffffffffffffffff168273ffffffffffffffffffffffffffffffffffffffff1603610f5757816040517f5b08ba18000000000000000000000000000000000000000000000000000000008152600401610f4e9190611b82565b60405180910390fd5b80600560008573ffffffffffffffffffffffffffffffffffffffff1673ffffffffffffffffffffffffffffffffffffffff16815260200190815260200160002060008473ffffffffffffffffffffffffffffffffffffffff1673ffffffffffffffffffffffffffffffffffffffff16815260200190815260200160002060006101000a81548160ff0219169083151502179055508173ffffffffffffffffffffffffffffffffffffffff168373ffffffffffffffffffffffffffffffffffffffff167f17307eab39ab6107e8899845ad3d59bd9653f200f220920489ca2b5937696c31836040516110489190611a11565b60405180910390a3505050565b60008373ffffffffffffffffffffffffffffffffffffffff163b11156111ff578273ffffffffffffffffffffffffffffffffffffffff1663150b7a02868685856040518563ffffffff1660e01b81526004016110b494939291906120da565b6020604051808303816000875af19250505080156110f057506040513d601f19601f820116820180604052508101906110ed919061213b565b60015b611174573d8060008114611120576040519150601f19603f3d011682016040523d82523d6000602084013e611125565b606091505b50600081510361116c57836040517f64a0ae920000000000000000000000000000000000000000000000000000000081526004016111639190611b82565b60405180910390fd5b805160208201fd5b63150b7a0260e01b7bffffffffffffffffffffffffffffffffffffffffffffffffffffffff1916817bffffffffffffffffffffffffffffffffffffffffffffffffffffffff1916146111fd57836040517f64a0ae920000000000000000000000000000000000000000000000000000000081526004016111f49190611b82565b60405180910390fd5b505b5050505050565b60606008805461121590611f46565b80601f016020809104026020016040519081016040528092919081815260200182805461124190611f46565b801561128e5780601f106112635761010080835404028352916020019161128e565b820191906000526020600020905b81548152906001019060200180831161127157829003601f168201915b5050505050905090565b6060600060016112a784611650565b01905060008167ffffffffffffffff8111156112c6576112c5611d29565b5b6040519080825280601f01601f1916602001820160405280156112f85781602001600182028036833780820191505090505b509050600082602083010190505b60011561135b578080600190039150507f3031323334353637383961626364656600000000000000000000000000000000600a86061a8153600a858161134f5761134e612168565b5b04945060008503611306575b819350505050919050565b60006002600083815260200190815260200160002060009054906101000a900473ffffffffffffffffffffffffffffffffffffffff169050919050565b80806113dc5750600073ffffffffffffffffffffffffffffffffffffffff168273ffffffffffffffffffffffffffffffffffffffff1614155b156115105760006113ec84610a82565b9050600073ffffffffffffffffffffffffffffffffffffffff168373ffffffffffffffffffffffffffffffffffffffff161415801561145757508273ffffffffffffffffffffffffffffffffffffffff168173ffffffffffffffffffffffffffffffffffffffff1614155b801561146a575061146881846108fe565b155b156114ac57826040517fa9fbf51f0000000000000000000000000000000000000000000000000000000081526004016114a39190611b82565b60405180910390fd5b811561150e57838573ffffffffffffffffffffffffffffffffffffffff168273ffffffffffffffffffffffffffffffffffffffff167f8c5be1e5ebec7d5bd14f71427d1e84f3dd0314c0f7b2291e5b200ac8c7c3b92560405160405180910390a45b505b836004600085815260200190815260200160002060006101000a81548173ffffffffffffffffffffffffffffffffffffffff021916908373ffffffffffffffffffffffffffffffffffffffff16021790555050505050565b6115738383836117a3565b61162757600073ffffffffffffffffffffffffffffffffffffffff168373ffffffffffffffffffffffffffffffffffffffff16036115e857806040517f7e2732890000000000000000000000000000000000000000000000000000000081526004016115df9190611c98565b60405180910390fd5b81816040517f177e802f00000000000000000000000000000000000000000000000000000000815260040161161e929190612197565b60405180910390fd5b505050565b6116368383611864565b61164b611641610b47565b6000858585611055565b505050565b600080600090507a184f03e93ff9f4daa797ed6e38ed64bf6a1f01000000000000000083106116ae577a184f03e93ff9f4daa797ed6e38ed64bf6a1f01000000000000000083816116a4576116a3612168565b5b0492506040810190505b6d04ee2d6d415b85acef810000000083106116eb576d04ee2d6d415b85acef810000000083816116e1576116e0612168565b5b0492506020810190505b662386f26fc10000831061171a57662386f26fc1000083816117105761170f612168565b5b0492506010810190505b6305f5e1008310611743576305f5e100838161173957611738612168565b5b0492506008810190505b612710831061176857612710838161175e5761175d612168565b5b0492506004810190505b6064831061178b576064838161178157611780612168565b5b0492506002810190505b600a831061179a576001810190505b80915050919050565b60008073ffffffffffffffffffffffffffffffffffffffff168373ffffffffffffffffffffffffffffffffffffffff161415801561185b57508273ffffffffffffffffffffffffffffffffffffffff168473ffffffffffffffffffffffffffffffffffffffff16148061181c575061181b84846108fe565b5b8061185a57508273ffffffffffffffffffffffffffffffffffffffff1661184283610b0a565b73ffffffffffffffffffffffffffffffffffffffff16145b5b90509392505050565b600073ffffffffffffffffffffffffffffffffffffffff168273ffffffffffffffffffffffffffffffffffffffff16036118d65760006040517f64a0ae920000000000000000000000000000000000000000000000000000000081526004016118cd9190611b82565b60405180910390fd5b60006118e483836000610b61565b9050600073ffffffffffffffffffffffffffffffffffffffff168173ffffffffffffffffffffffffffffffffffffffff16146119585760006040517f73c6ac6e00000000000000000000000000000000000000000000000000000000815260040161194f9190611b82565b60405180910390fd5b505050565b6000604051905090565b600080fd5b600080fd5b60007fffffffff0000000000000000000000000000000000000000000000000000000082169050919050565b6119a681611971565b81146119b157600080fd5b50565b6000813590506119c38161199d565b92915050565b6000602082840312156119df576119de611967565b5b60006119ed848285016119b4565b91505092915050565b60008115159050919050565b611a0b816119f6565b82525050565b6000602082019050611a266000830184611a02565b92915050565b600081519050919050565b600082825260208201905092915050565b60005b83811015611a66578082015181840152602081019050611a4b565b60008484015250505050565b6000601f19601f8301169050919050565b6000611a8e82611a2c565b611a988185611a37565b9350611aa8818560208601611a48565b611ab181611a72565b840191505092915050565b60006020820190508181036000830152611ad68184611a83565b905092915050565b6000819050919050565b611af181611ade565b8114611afc57600080fd5b50565b600081359050611b0e81611ae8565b92915050565b600060208284031215611b2a57611b29611967565b5b6000611b3884828501611aff565b91505092915050565b600073ffffffffffffffffffffffffffffffffffffffff82169050919050565b6000611b6c82611b41565b9050919050565b611b7c81611b61565b82525050565b6000602082019050611b976000830184611b73565b92915050565b611ba681611b61565b8114611bb157600080fd5b50565b600081359050611bc381611b9d565b92915050565b60008060408385031215611be057611bdf611967565b5b6000611bee85828601611bb4565b9250506020611bff85828601611aff565b9150509250929050565b600080600060608486031215611c2257611c21611967565b5b6000611c3086828701611bb4565b9350506020611c4186828701611bb4565b9250506040611c5286828701611aff565b9150509250925092565b600060208284031215611c7257611c71611967565b5b6000611c8084828501611bb4565b91505092915050565b611c9281611ade565b82525050565b6000602082019050611cad6000830184611c89565b92915050565b611cbc816119f6565b8114611cc757600080fd5b50565b600081359050611cd981611cb3565b92915050565b60008060408385031215611cf657611cf5611967565b5b6000611d0485828601611bb4565b9250506020611d1585828601611cca565b9150509250929050565b600080fd5b600080fd5b7f4e487b7100000000000000000000000000000000000000000000000000000000600052604160045260246000fd5b611d6182611a72565b810181811067ffffffffffffffff82111715611d8057611d7f611d29565b5b80604052505050565b6000611d9361195d565b9050611d9f8282611d58565b919050565b600067ffffffffffffffff821115611dbf57611dbe611d29565b5b611dc882611a72565b9050602081019050919050565b82818337600083830152505050565b6000611df7611df284611da4565b611d89565b905082815260208101848484011115611e1357611e12611d24565b5b611e1e848285611dd5565b509392505050565b600082601f830112611e3b57611e3a611d1f565b5b8135611e4b848260208601611de4565b91505092915050565b60008060008060808587031215611e6e57611e6d611967565b5b6000611e7c87828801611bb4565b9450506020611e8d87828801611bb4565b9350506040611e9e87828801611aff565b925050606085013567ffffffffffffffff811115611ebf57611ebe61196c565b5b611ecb87828801611e26565b91505092959194509250565b60008060408385031215611eee57611eed611967565b5b6000611efc85828601611bb4565b9250506020611f0d85828601611bb4565b9150509250929050565b7f4e487b7100000000000000000000000000000000000000000000000000000000600052602260045260246000fd5b60006002820490506001821680611f5e57607f821691505b602082108103611f7157611f70611f17565b5b50919050565b6000606082019050611f8c6000830186611b73565b611f996020830185611c89565b611fa66040830184611b73565b949350505050565b7f4e487b7100000000000000000000000000000000000000000000000000000000600052601160045260246000fd5b6000611fe882611ade565b91507fffffffffffffffffffffffffffffffffffffffffffffffffffffffffffffffff820361201a57612019611fae565b5b600182019050919050565b600081905092915050565b600061203b82611a2c565b6120458185612025565b9350612055818560208601611a48565b80840191505092915050565b600061206d8285612030565b91506120798284612030565b91508190509392505050565b600081519050919050565b600082825260208201905092915050565b60006120ac82612085565b6120b68185612090565b93506120c6818560208601611a48565b6120cf81611a72565b840191505092915050565b60006080820190506120ef6000830187611b73565b6120fc6020830186611b73565b6121096040830185611c89565b818103606083015261211b81846120a1565b905095945050505050565b6000815190506121358161199d565b92915050565b60006020828403121561215157612150611967565b5b600061215f84828501612126565b91505092915050565b7f4e487b7100000000000000000000000000000000000000000000000000000000600052601260045260246000fd5b60006040820190506121ac6000830185611b73565b6121b96020830184611c89565b939250505056fea264697066735822122056eb6d99de0d7a1ab2fb9df2de2a5a03ca8abc46b1c398250bff504223f4322064736f6c63430008140033",
  "linkReferences": {},
  "deployedLinkReferences": {}
}